{
  "contractName": "main",
  "abi": [
    {
      "anonymous": false,
      "inputs": [
        {
          "indexed": false,
          "name": "drugName",
          "type": "string"
        },
        {
          "indexed": false,
          "name": "drugQuantity",
          "type": "string"
        },
        {
          "indexed": false,
          "name": "dateOfManufacture",
          "type": "string"
        },
        {
          "indexed": false,
          "name": "dateOfExpire",
          "type": "string"
        },
        {
          "indexed": false,
          "name": "companyName",
          "type": "string"
        },
        {
          "indexed": false,
          "name": "companyAddress",
          "type": "string"
        },
        {
          "indexed": false,
          "name": "verified",
          "type": "bool"
        },
        {
          "indexed": false,
          "name": "activity",
          "type": "uint8"
        }
      ],
      "name": "addDrugs",
      "type": "event"
    },
    {
      "anonymous": false,
      "inputs": [
        {
          "indexed": false,
          "name": "origmanufacturer",
          "type": "address"
        },
        {
          "indexed": false,
          "name": "origmantimestamp",
          "type": "uint256"
        },
        {
          "indexed": false,
          "name": "origdistributor",
          "type": "address"
        },
        {
          "indexed": false,
          "name": "origdistimestamp",
          "type": "uint256"
        },
        {
          "indexed": false,
          "name": "origlogistic",
          "type": "address"
        },
        {
          "indexed": false,
          "name": "origlogtimestamp",
          "type": "uint256"
        },
        {
          "indexed": false,
          "name": "origenduser",
          "type": "address"
        },
        {
          "indexed": false,
          "name": "origusertimestamp",
          "type": "uint256"
        }
      ],
      "name": "manageSupplychain",
      "type": "event"
    },
    {
      "anonymous": false,
      "inputs": [
        {
          "indexed": false,
          "name": "drugName",
          "type": "string"
        },
        {
          "indexed": false,
          "name": "drugQuantity",
          "type": "string"
        },
        {
          "indexed": false,
          "name": "dateOfManufacture",
          "type": "string"
        },
        {
          "indexed": false,
          "name": "dateOfExpire",
          "type": "string"
        },
        {
          "indexed": false,
          "name": "companyName",
          "type": "string"
        },
        {
          "indexed": false,
          "name": "companyAddress",
          "type": "string"
        },
        {
          "indexed": false,
          "name": "verified",
          "type": "bool"
        },
        {
          "indexed": false,
          "name": "activity",
          "type": "uint8"
        },
        {
          "indexed": false,
          "name": "batchno",
          "type": "string"
        }
      ],
      "name": "addDrug",
      "type": "event"
    },
    {
      "constant": false,
      "inputs": [
        {
          "name": "_drugName",
          "type": "string"
        },
        {
          "name": "_drugQuantity",
          "type": "string"
        },
        {
          "name": "_dateOfManufacture",
          "type": "string"
        },
        {
          "name": "_dateOfExpire",
          "type": "string"
        },
        {
          "name": "_companyName",
          "type": "string"
        },
        {
          "name": "_companyAddress",
          "type": "string"
        },
        {
          "name": "_verified",
          "type": "bool"
        },
        {
          "name": "activity",
          "type": "uint8"
        },
        {
          "name": "batchno",
          "type": "string"
        }
      ],
      "name": "AddDrug",
      "outputs": [],
      "payable": false,
      "stateMutability": "nonpayable",
      "type": "function"
    },
    {
      "constant": true,
      "inputs": [
        {
          "name": "batchno",
          "type": "string"
        }
      ],
      "name": "retrieveDrug",
      "outputs": [
        {
          "name": "",
          "type": "string"
        },
        {
          "name": "",
          "type": "string"
        },
        {
          "name": "",
          "type": "string"
        },
        {
          "name": "",
          "type": "string"
        },
        {
          "name": "",
          "type": "string"
        },
        {
          "name": "",
          "type": "string"
        }
      ],
      "payable": false,
      "stateMutability": "view",
      "type": "function"
    },
    {
      "constant": true,
      "inputs": [
        {
          "name": "batchno",
          "type": "string"
        }
      ],
      "name": "retrieveDrug1",
      "outputs": [
        {
          "name": "",
          "type": "bool"
        },
        {
          "name": "",
          "type": "uint8"
        }
      ],
      "payable": false,
      "stateMutability": "view",
      "type": "function"
    },
    {
      "constant": false,
      "inputs": [
        {
          "name": "batchno",
          "type": "string"
        }
      ],
      "name": "addManufactuer",
      "outputs": [],
      "payable": false,
      "stateMutability": "nonpayable",
      "type": "function"
    },
    {
      "constant": false,
      "inputs": [
        {
          "name": "batchno",
          "type": "string"
        }
      ],
      "name": "addDistributor",
      "outputs": [],
      "payable": false,
      "stateMutability": "nonpayable",
      "type": "function"
    },
    {
      "constant": false,
      "inputs": [
        {
          "name": "batchno",
          "type": "string"
        }
      ],
      "name": "addLogistic",
      "outputs": [],
      "payable": false,
      "stateMutability": "nonpayable",
      "type": "function"
    },
    {
      "constant": false,
      "inputs": [
        {
          "name": "batchno",
          "type": "string"
        }
      ],
      "name": "addEndUser",
      "outputs": [],
      "payable": false,
      "stateMutability": "nonpayable",
      "type": "function"
    },
    {
      "constant": true,
      "inputs": [
        {
          "name": "batchno",
          "type": "string"
        }
      ],
      "name": "returnRolesAddresses",
      "outputs": [
        {
          "name": "",
          "type": "address"
        },
        {
          "name": "",
          "type": "address"
        },
        {
          "name": "",
          "type": "address"
        },
        {
          "name": "",
          "type": "address"
        },
        {
          "name": "",
          "type": "uint256"
        },
        {
          "name": "",
          "type": "uint256"
        },
        {
          "name": "",
          "type": "uint256"
        }
      ],
      "payable": false,
      "stateMutability": "view",
      "type": "function"
    },
    {
      "constant": true,
      "inputs": [
        {
          "name": "batchno",
          "type": "string"
        }
      ],
      "name": "returnRolesTimeStamp",
      "outputs": [
        {
          "name": "",
          "type": "uint256"
        },
        {
          "name": "",
          "type": "uint256"
        },
        {
          "name": "",
          "type": "uint256"
        },
        {
          "name": "",
          "type": "uint256"
        }
      ],
      "payable": false,
      "stateMutability": "view",
      "type": "function"
    },
    {
      "constant": true,
      "inputs": [
        {
          "name": "batchno",
          "type": "string"
        }
      ],
      "name": "returnRolesStatus",
      "outputs": [
        {
          "name": "",
          "type": "bool"
        },
        {
          "name": "",
          "type": "bool"
        },
        {
          "name": "",
          "type": "bool"
        },
        {
          "name": "",
          "type": "bool"
        }
      ],
      "payable": false,
      "stateMutability": "view",
      "type": "function"
    },
    {
      "constant": false,
      "inputs": [
        {
          "name": "batchno",
          "type": "string"
        }
      ],
      "name": "addSecretCode",
      "outputs": [],
      "payable": false,
      "stateMutability": "nonpayable",
      "type": "function"
    },
    {
      "constant": true,
      "inputs": [
        {
          "name": "batchno",
          "type": "string"
        }
      ],
      "name": "generateSecretCode",
      "outputs": [
        {
          "name": "",
          "type": "uint256"
        }
      ],
      "payable": false,
      "stateMutability": "view",
      "type": "function"
    },
    {
      "constant": false,
      "inputs": [
        {
          "name": "batchno",
          "type": "string"
        },
        {
          "name": "code",
          "type": "uint256"
        }
      ],
      "name": "stopSupplychain",
      "outputs": [],
      "payable": false,
      "stateMutability": "nonpayable",
      "type": "function"
    }
  ],
  "bytecode": "0x608060405234801561001057600080fd5b50612ea7806100206000396000f3fe6080604052600436106100c45763ffffffff7c01000000000000000000000000000000000000000000000000000000006000350416630e972e6d81146100c95780633e24e065146101a25780635b70e90a146102575780635c013927146103375780635ee7f10e1461066057806381d9def214610a4f5780638ecd2f0b14610b02578063a4ec351114610bff578063a5fe211c14610cb2578063adf53aac14610d67578063b81f20df14610e1a578063c7ce7e8814610edf578063fe8ac4fd14610fbc575b600080fd5b3480156100d557600080fd5b5061017c600480360360208110156100ec57600080fd5b81019060208101813564010000000081111561010757600080fd5b82018360208201111561011957600080fd5b8035906020019184600183028401116401000000008311171561013b57600080fd5b91908080601f01602080910402602001604051908101604052809392919081815260200183838082843760009201919091525092955061106f945050505050565b604080519485526020850193909352838301919091526060830152519081900360800190f35b3480156101ae57600080fd5b50610255600480360360208110156101c557600080fd5b8101906020810181356401000000008111156101e057600080fd5b8201836020820111156101f257600080fd5b8035906020019184600183028401116401000000008311171561021457600080fd5b91908080601f016020809104026020016040519081016040528093929190818152602001838380828437600092019190915250929550611215945050505050565b005b34801561026357600080fd5b5061030a6004803603602081101561027a57600080fd5b81019060208101813564010000000081111561029557600080fd5b8201836020820111156102a757600080fd5b803590602001918460018302840111640100000000831117156102c957600080fd5b91908080601f01602080910402602001604051908101604052809392919081815260200183838082843760009201919091525092955061122a945050505050565b60405182151581526020810182600181111561032257fe5b60ff1681526020019250505060405180910390f35b34801561034357600080fd5b506103ea6004803603602081101561035a57600080fd5b81019060208101813564010000000081111561037557600080fd5b82018360208201111561038757600080fd5b803590602001918460018302840111640100000000831117156103a957600080fd5b91908080601f016020809104026020016040519081016040528093929190818152602001838380828437600092019190915250929550611314945050505050565b6040518080602001806020018060200180602001806020018060200187810387528d818151815260200191508051906020019080838360005b8381101561043b578181015183820152602001610423565b50505050905090810190601f1680156104685780820380516001836020036101000a031916815260200191505b5087810386528c5181528c516020918201918e019080838360005b8381101561049b578181015183820152602001610483565b50505050905090810190601f1680156104c85780820380516001836020036101000a031916815260200191505b5087810385528b5181528b516020918201918d019080838360005b838110156104fb5781810151838201526020016104e3565b50505050905090810190601f1680156105285780820380516001836020036101000a031916815260200191505b5087810384528a5181528a516020918201918c019080838360005b8381101561055b578181015183820152602001610543565b50505050905090810190601f1680156105885780820380516001836020036101000a031916815260200191505b5087810383528951815289516020918201918b019080838360005b838110156105bb5781810151838201526020016105a3565b50505050905090810190601f1680156105e85780820380516001836020036101000a031916815260200191505b5087810382528851815288516020918201918a019080838360005b8381101561061b578181015183820152602001610603565b50505050905090810190601f1680156106485780820380516001836020036101000a031916815260200191505b509c5050505050505050505050505060405180910390f35b34801561066c57600080fd5b50610255600480360361012081101561068457600080fd5b81019060208101813564010000000081111561069f57600080fd5b8201836020820111156106b157600080fd5b803590602001918460018302840111640100000000831117156106d357600080fd5b91908080601f016020809104026020016040519081016040528093929190818152602001838380828437600092019190915250929594936020810193503591505064010000000081111561072657600080fd5b82018360208201111561073857600080fd5b8035906020019184600183028401116401000000008311171561075a57600080fd5b91908080601f01602080910402602001604051908101604052809392919081815260200183838082843760009201919091525092959493602081019350359150506401000000008111156107ad57600080fd5b8201836020820111156107bf57600080fd5b803590602001918460018302840111640100000000831117156107e157600080fd5b91908080601f016020809104026020016040519081016040528093929190818152602001838380828437600092019190915250929594936020810193503591505064010000000081111561083457600080fd5b82018360208201111561084657600080fd5b8035906020019184600183028401116401000000008311171561086857600080fd5b91908080601f01602080910402602001604051908101604052809392919081815260200183838082843760009201919091525092959493602081019350359150506401000000008111156108bb57600080fd5b8201836020820111156108cd57600080fd5b803590602001918460018302840111640100000000831117156108ef57600080fd5b91908080601f016020809104026020016040519081016040528093929190818152602001838380828437600092019190915250929594936020810193503591505064010000000081111561094257600080fd5b82018360208201111561095457600080fd5b8035906020019184600183028401116401000000008311171561097657600080fd5b91908080601f0160208091040260200160405190810160405280939291908181526020018383808284376000920191909152509295843515159560ff602087013516959194509250606081019150604001356401000000008111156109da57600080fd5b8201836020820111156109ec57600080fd5b80359060200191846001830284011164010000000083111715610a0e57600080fd5b91908080601f0160208091040260200160405190810160405280939291908181526020018383808284376000920191909152509295506118ed945050505050565b348015610a5b57600080fd5b5061025560048036036020811015610a7257600080fd5b810190602081018135640100000000811115610a8d57600080fd5b820183602082011115610a9f57600080fd5b80359060200191846001830284011164010000000083111715610ac157600080fd5b91908080601f016020809104026020016040519081016040528093929190818152602001838380828437600092019190915250929550611d3c945050505050565b348015610b0e57600080fd5b50610bb560048036036020811015610b2557600080fd5b810190602081018135640100000000811115610b4057600080fd5b820183602082011115610b5257600080fd5b80359060200191846001830284011164010000000083111715610b7457600080fd5b91908080601f016020809104026020016040519081016040528093929190818152602001838380828437600092019190915250929550611d4d945050505050565b60408051600160a060020a039889168152968816602088015294871686860152929095166060850152608084015260a083019390935260c082019290925290519081900360e00190f35b348015610c0b57600080fd5b5061025560048036036020811015610c2257600080fd5b810190602081018135640100000000811115610c3d57600080fd5b820183602082011115610c4f57600080fd5b80359060200191846001830284011164010000000083111715610c7157600080fd5b91908080601f01602080910402602001604051908101604052809392919081815260200183838082843760009201919091525092955061206f945050505050565b348015610cbe57600080fd5b5061025560048036036040811015610cd557600080fd5b810190602081018135640100000000811115610cf057600080fd5b820183602082011115610d0257600080fd5b80359060200191846001830284011164010000000083111715610d2457600080fd5b91908080601f0160208091040260200160405190810160405280939291908181526020018383808284376000920191909152509295505091359250612080915050565b348015610d7357600080fd5b5061025560048036036020811015610d8a57600080fd5b810190602081018135640100000000811115610da557600080fd5b820183602082011115610db757600080fd5b80359060200191846001830284011164010000000083111715610dd957600080fd5b91908080601f01602080910402602001604051908101604052809392919081815260200183838082843760009201919091525092955061217b945050505050565b348015610e2657600080fd5b50610ecd60048036036020811015610e3d57600080fd5b810190602081018135640100000000811115610e5857600080fd5b820183602082011115610e6a57600080fd5b80359060200191846001830284011164010000000083111715610e8c57600080fd5b91908080601f01602080910402602001604051908101604052809392919081815260200183838082843760009201919091525092955061218c945050505050565b60408051918252519081900360200190f35b348015610eeb57600080fd5b50610f9260048036036020811015610f0257600080fd5b810190602081018135640100000000811115610f1d57600080fd5b820183602082011115610f2f57600080fd5b80359060200191846001830284011164010000000083111715610f5157600080fd5b91908080601f0160208091040260200160405190810160405280939291908181526020018383808284376000920191909152509295506121f4945050505050565b60408051941515855292151560208501529015158383015215156060830152519081900360800190f35b348015610fc857600080fd5b5061025560048036036020811015610fdf57600080fd5b810190602081018135640100000000811115610ffa57600080fd5b82018360208201111561100c57600080fd5b8035906020019184600183028401116401000000008311171561102e57600080fd5b91908080601f0160208091040260200160405190810160405280939291908181526020018383808284376000920191909152509295506123b9945050505050565b600080600080600b856040518082805190602001908083835b602083106110a75780518252601f199092019160209182019101611088565b51815160209384036101000a600019018019909216911617905292019485525060405193849003810184206001015489519094600b94508a9350918291908401908083835b6020831061110b5780518252601f1990920191602091820191016110ec565b51815160209384036101000a60001901801990921691161790529201948552506040519384900381018420600301548a519094600b94508b9350918291908401908083835b6020831061116f5780518252601f199092019160209182019101611150565b51815160209384036101000a60001901801990921691161790529201948552506040519384900381018420600501548b519094600b94508c9350918291908401908083835b602083106111d35780518252601f1990920191602091820191016111b4565b51815160209384036101000a6000190180199092169116179052920194855250604051938490030190922060070154949a939950919750929550909350505050565b338015611226576112268183612458565b5050565b6000806008836040518082805190602001908083835b6020831061125f5780518252601f199092019160209182019101611240565b51815160209384036101000a6000190180199092169116179052920194855250604051938490038101842060060154875160ff9091169460089450889350918291908401908083835b602083106112c75780518252601f1990920191602091820191016112a8565b6001836020036101000a038019825116818451168082178552505050505050905001915050908152602001604051809103902060060160019054906101000a900460ff1691509150915091565b6060806060806060806008876040518082805190602001908083835b6020831061134f5780518252601f199092019160209182019101611330565b51815160209384036101000a600019018019909216911617905292019485525060405193849003810184208b519094600894508c9350918291908401908083835b602083106113af5780518252601f199092019160209182019101611390565b6001836020036101000a03801982511681845116808217855250505050505090500191505090815260200160405180910390206001016008896040518082805190602001908083835b602083106114175780518252601f1990920191602091820191016113f8565b6001836020036101000a038019825116818451168082178552505050505050905001915050908152602001604051809103902060020160088a6040518082805190602001908083835b6020831061147f5780518252601f199092019160209182019101611460565b6001836020036101000a038019825116818451168082178552505050505050905001915050908152602001604051809103902060030160088b6040518082805190602001908083835b602083106114e75780518252601f1990920191602091820191016114c8565b6001836020036101000a038019825116818451168082178552505050505050905001915050908152602001604051809103902060040160088c6040518082805190602001908083835b6020831061154f5780518252601f199092019160209182019101611530565b518151600019602094850361010090810a820192831692199390931691909117909252949092019687526040805197889003820188208d54601f600260018316159098029095011695909504928301829004820288018201905281875260059093019594508a935091840190508282801561160b5780601f106115e05761010080835404028352916020019161160b565b820191906000526020600020905b8154815290600101906020018083116115ee57829003601f168201915b5050885460408051602060026001851615610100026000190190941693909304601f8101849004840282018401909252818152959b508a9450925084019050828280156116995780601f1061166e57610100808354040283529160200191611699565b820191906000526020600020905b81548152906001019060200180831161167c57829003601f168201915b5050875460408051602060026001851615610100026000190190941693909304601f8101849004840282018401909252818152959a50899450925084019050828280156117275780601f106116fc57610100808354040283529160200191611727565b820191906000526020600020905b81548152906001019060200180831161170a57829003601f168201915b5050865460408051602060026001851615610100026000190190941693909304601f8101849004840282018401909252818152959950889450925084019050828280156117b55780601f1061178a576101008083540402835291602001916117b5565b820191906000526020600020905b81548152906001019060200180831161179857829003601f168201915b5050855460408051602060026001851615610100026000190190941693909304601f8101849004840282018401909252818152959850879450925084019050828280156118435780601f1061181857610100808354040283529160200191611843565b820191906000526020600020905b81548152906001019060200180831161182657829003601f168201915b5050845460408051602060026001851615610100026000190190941693909304601f8101849004840282018401909252818152959750869450925084019050828280156118d15780601f106118a6576101008083540402835291602001916118d1565b820191906000526020600020905b8154815290600101906020018083116118b457829003601f168201915b5050505050905095509550955095509550955091939550919395565b610100604051908101604052808a815260200189815260200188815260200187815260200186815260200185815260200184151581526020016000600181111561193357fe5b8152506008826040518082805190602001908083835b602083106119685780518252601f199092019160209182019101611949565b51815160209384036101000a60001901801990921691161790529201948552506040519384900381019093208451805191946119a994508593500190612dc0565b5060208281015180516119c29260018501920190612dc0565b50604082015180516119de916002840191602090910190612dc0565b50606082015180516119fa916003840191602090910190612dc0565b5060808201518051611a16916004840191602090910190612dc0565b5060a08201518051611a32916005840191602090910190612dc0565b5060c082015160068201805460ff19169115159190911780825560e0840151919061ff001916610100836001811115611a6757fe5b02179055509050507f7ae73358f97393ec71fd1310604de13c1563a18ed01c1f245f2ca11bd2b452bd8989898989898960006040518080602001806020018060200180602001806020018060200189151515158152602001886001811115611acb57fe5b60ff16815260200187810387528f818151815260200191508051906020019080838360005b83811015611b08578181015183820152602001611af0565b50505050905090810190601f168015611b355780820380516001836020036101000a031916815260200191505b5087810386528e818151815260200191508051906020019080838360005b83811015611b6b578181015183820152602001611b53565b50505050905090810190601f168015611b985780820380516001836020036101000a031916815260200191505b5087810385528d5181528d516020918201918f019080838360005b83811015611bcb578181015183820152602001611bb3565b50505050905090810190601f168015611bf85780820380516001836020036101000a031916815260200191505b5087810384528c5181528c516020918201918e019080838360005b83811015611c2b578181015183820152602001611c13565b50505050905090810190601f168015611c585780820380516001836020036101000a031916815260200191505b5087810383528b5181528b516020918201918d019080838360005b83811015611c8b578181015183820152602001611c73565b50505050905090810190601f168015611cb85780820380516001836020036101000a031916815260200191505b5087810382528a5181528a516020918201918c019080838360005b83811015611ceb578181015183820152602001611cd3565b50505050905090810190601f168015611d185780820380516001836020036101000a031916815260200191505b509e50505050505050505050505050505060405180910390a1505050505050505050565b3380156112265761122681836126a9565b6000806000806000806000600b886040518082805190602001908083835b60208310611d8a5780518252601f199092019160209182019101611d6b565b51815160209384036101000a60001901801990921691161790529201948552506040519384900381018420548c51600160a060020a0390911694600b94508d9350918291908401908083835b60208310611df55780518252601f199092019160209182019101611dd6565b51815160209384036101000a60001901801990921691161790529201948552506040519384900381018420600201548d51600160a060020a0390911694600b94508e9350918291908401908083835b60208310611e635780518252601f199092019160209182019101611e44565b51815160209384036101000a60001901801990921691161790529201948552506040519384900381018420600401548e51600160a060020a0390911694600b94508f9350918291908401908083835b60208310611ed15780518252601f199092019160209182019101611eb2565b6001836020036101000a038019825116818451168082178552505050505050905001915050908152602001604051809103902060060160009054906101000a9004600160a060020a0316600b8c6040518082805190602001908083835b60208310611f4d5780518252601f199092019160209182019101611f2e565b6001836020036101000a038019825116818451168082178552505050505050905001915050908152602001604051809103902060010154600b8d6040518082805190602001908083835b60208310611fb65780518252601f199092019160209182019101611f97565b6001836020036101000a038019825116818451168082178552505050505050905001915050908152602001604051809103902060030154600b8e6040518082805190602001908083835b6020831061201f5780518252601f199092019160209182019101612000565b6001836020036101000a0380198251168184511680821785525050505050509050019150509081526020016040518091039020600501549650965096509650965096509650919395979092949650565b338015611226576112268183612903565b806009836040518082805190602001908083835b602083106120b35780518252601f199092019160209182019101612094565b6001836020036101000a03801982511681845116808217855250505050505090500191505090815260200160405180910390205414156112265760016008836040518082805190602001908083835b602083106121215780518252601f199092019160209182019101612102565b6001836020036101000a038019825116818451168082178552505050505050905001915050908152602001604051809103902060060160016101000a81548160ff0219169083600181111561217257fe5b02179055505050565b338015611226576112268183612b62565b60006009826040518082805190602001908083835b602083106121c05780518252601f1990920191602091820191016121a1565b51815160209384036101000a6000190180199092169116179052920194855250604051938490030190922054949350505050565b600080600080600a856040518082805190602001908083835b6020831061222c5780518252601f19909201916020918201910161220d565b51815160209384036101000a6000190180199092169116179052920194855250604051938490038101842054895160ff90911694600a94508a9350918291908401908083835b602083106122915780518252601f199092019160209182019101612272565b6001836020036101000a038019825116818451168082178552505050505050905001915050908152602001604051809103902060000160019054906101000a900460ff16600a876040518082805190602001908083835b602083106123075780518252601f1990920191602091820191016122e8565b51815160209384036101000a60001901801990921691161790529201948552506040519384900381018420548b516201000090910460ff1694600a94508c9350918291908401908083835b602083106123715780518252601f199092019160209182019101612352565b51815160209384036101000a6000190180199092169116179052920194855250604051938490030190922054949a9399509197505050630100000090910460ff169350915050565b60004442604051602001808381526020018281526020019250505060405160208183030381529060405280519060200120600190049050806009836040518082805190602001908083835b602083106124235780518252601f199092019160209182019101612404565b51815160209384036101000a600019018019909216911617905292019485525060405193849003019092209290925550505050565b60008054600160a060020a031916600160a060020a0384811691909117918290554260048190556040805161010081018252938316845260208085019290925260015483168482015260055460608501526002548316608085015260065460a085015260035490921660c084015260075460e084015290518351600b9285929182918401908083835b602083106125005780518252601f1990920191602091820191016124e1565b51815160209384036101000a600019018019909216911617905292019485525060408051948590038201852086518154600160a060020a0319908116600160a060020a0392831617835588850151600180850191909155938901516002840180548316918416919091179055606089015160038401556080890151600484018054831691841691909117905560a0890151600584015560c0890151600684018054909216921691909117905560e0909601516007909601959095558551600a94879450925082918401908083835b602083106125ed5780518252601f1990920191602091820191016125ce565b518151600019602094850361010090810a919091019182169119929092161790915293909101958652604080519687900382018720805498151560ff1990991698909817909755600054600454600154600554600254600654600354600754600160a060020a039788168e52978d01959095529285168b8d015260608b0191909152831660808a015260a08901521660c087015260e0860152509351600080516020612e5c833981519152949381900390930192915050a15050565b60018054600160a060020a031916600160a060020a0384811691909117918290554260058190556040805161010081018252600054841681526004546020808301919091529484168183015260608101929092526002548316608083015260065460a083015260035490921660c082015260075460e0820152905183519192600b928592918291908401908083835b602083106127575780518252601f199092019160209182019101612738565b51815160209384036101000a600019018019909216911617905292019485525060408051948590038201852086518154600160a060020a0319908116600160a060020a0392831617835588850151600180850191909155938901516002840180548316918416919091179055606089015160038401556080890151600484018054831691841691909117905560a0890151600584015560c0890151600684018054909216921691909117905560e0909601516007909601959095558551600a94879450925082918401908083835b602083106128445780518252601f199092019160209182019101612825565b518151600019602094850361010090810a9190910191821691199290921617909152939091019586526040805196879003820187208054981515850261ff001990991698909817909755600054600454600154600554600254600654600354600754600160a060020a039788168e52978d01959095529285168b8d015260608b0191909152831660808a015260a08901521660c087015260e0860152509351600080516020612e5c833981519152949381900390930192915050a15050565b60038054600160a060020a031916600160a060020a03848116919091179182905542600781905560408051610100810182526000548416815260045460208083019190915260015485168284015260055460608301526002548516608083015260065460a08301529490931660c084015260e08301919091525183519192600b928592918291908401908083835b602083106129b05780518252601f199092019160209182019101612991565b51815160209384036101000a600019018019909216911617905292019485525060408051948590038201852086518154600160a060020a0319908116600160a060020a0392831617835588850151600180850191909155938901516002840180548316918416919091179055606089015160038401556080890151600484018054831691841691909117905560a0890151600584015560c0890151600684018054909216921691909117905560e0909601516007909601959095558551600a94879450925082918401908083835b60208310612a9d5780518252601f199092019160209182019101612a7e565b518151600019602094850361010090810a919091019182169119929092161790915293909101958652604080519687900382018720805498151563010000000263ff0000001990991698909817909755600054600454600154600554600254600654600354600754600160a060020a039788168e52978d01959095529285168b8d015260608b0191909152831660808a015260a08901521660c087015260e0860152509351600080516020612e5c833981519152949381900390930192915050a15050565b60028054600160a060020a031916600160a060020a0384811691909117918290554260068190556040805161010081018252600054841681526004546020808301919091526001548516828401526005546060830152948416608082015260a081019290925260035490921660c082015260075460e0820152905183519192600b928592918291908401908083835b60208310612c105780518252601f199092019160209182019101612bf1565b51815160209384036101000a600019018019909216911617905292019485525060408051948590038201852086518154600160a060020a0319908116600160a060020a0392831617835588850151600180850191909155938901516002840180548316918416919091179055606089015160038401556080890151600484018054831691841691909117905560a0890151600584015560c0890151600684018054909216921691909117905560e0909601516007909601959095558551600a94879450925082918401908083835b60208310612cfd5780518252601f199092019160209182019101612cde565b518151600019602094850361010090810a9190910191821691199290921617909152939091019586526040805196879003820187208054981515620100000262ff00001990991698909817909755600054600454600154600554600254600654600354600754600160a060020a039788168e52978d01959095529285168b8d015260608b0191909152831660808a015260a08901521660c087015260e0860152509351600080516020612e5c833981519152949381900390930192915050a15050565b828054600181600116156101000203166002900490600052602060002090601f016020900481019282601f10612e0157805160ff1916838001178555612e2e565b82800160010185558215612e2e579182015b82811115612e2e578251825591602001919060010190612e13565b50612e3a929150612e3e565b5090565b612e5891905b80821115612e3a5760008155600101612e44565b9056fe0f09c3dfa2e3af7b40c7b5be6fe6ed1f408ea0fd76c28b3bf02657d37b46f38ba165627a7a723058206fc11328c2858d7f850fab574c8aaded44dd29461635c6cb529ff8b736de98b00029",
  "source": "pragma solidity ^0.5.0; \r\n    \r\ncontract main{  \r\n    address origmanufacturer; \r\n    address origdistributor; \r\n    address origlogistic; \r\n    address origenduser; \r\n    uint origmantimestamp;\r\n    uint origdistimestamp;\r\n    uint origlogtimestamp;\r\n    uint origusertimestamp;\r\n\r\n    //Tracks whether the drug is active or inactive in supplychain\r\n    enum drugActivity{\r\n        Active, \r\n        Inactive\r\n    } \r\n\r\n    //Drug details\r\n    struct Drug{\r\n            string drugName;\r\n            string drugQuantity; \r\n            string dateOfManufacture; \r\n            string dateOfExpire;\r\n            string companyName;\r\n            string companyAddress; \r\n            bool verified;\r\n            drugActivity activity;  \r\n        }  \r\n    mapping(string=>Drug) drugDetail;      \r\n\r\n    mapping(string=>uint) secretCode;\r\n\r\n     //Event to add drug to blockchain \r\n    event addDrugs(string drugName, string drugQuantity, string dateOfManufacture, string dateOfExpire, string companyName, string companyAddress, bool verified, drugActivity activity);\r\n\r\n\r\n    //Tracks the status of drug at each actor role, \"true\" if the drug has reached the particular actor role else \"false\"\r\n     struct DrugTrack{\r\n        bool manufacturer;\r\n        bool distributor; \r\n        bool logisticreg; \r\n        bool enduser;\r\n    }  \r\n\r\n    //Address of actor roles if the drug has reached the particular actor role\r\n    struct supplyChain{\r\n        address _manufacturer; \r\n        uint _mantimestamp;\r\n        address _distributor; \r\n        uint _distimestamp;\r\n        address _logistics; \r\n        uint _logtimestamp;\r\n        address _enduser;\r\n        uint _usertimestamp;\r\n    } \r\n\r\n    //batch no linked to Structure drugTrack\r\n    mapping(string=>DrugTrack) drugTrack; \r\n\r\n    //batch no linked to Structure supplychain\r\n    mapping(string=>supplyChain) supplychain; \r\n\r\n    //Event is triggered to add address of particular actor role when drug is reached\r\n    //This event handles struct supplychain\r\n    event manageSupplychain(address origmanufacturer, uint origmantimestamp, address origdistributor, uint origdistimestamp, address origlogistic, uint origlogtimestamp, address origenduser, uint origusertimestamp);\r\n    \r\n    //Event to add drug to blockchain \r\n    event addDrug(string drugName, string drugQuantity, string dateOfManufacture, string dateOfExpire, string companyName, string companyAddress, bool verified, drugActivity activity, string batchno);\r\n\r\n    function AddDrug(string memory _drugName, \r\n    string memory _drugQuantity, \r\n    string memory _dateOfManufacture, \r\n    string memory _dateOfExpire, \r\n    string memory _companyName, \r\n    string memory _companyAddress, \r\n    bool _verified, \r\n    drugActivity activity, \r\n    string memory batchno) public{\r\n        drugDetail[batchno]= Drug(_drugName,_drugQuantity,_dateOfManufacture,_dateOfExpire,_companyName,_companyAddress,_verified,drugActivity.Active);\r\n        emit addDrugs(_drugName, _drugQuantity, _dateOfManufacture, _dateOfExpire, _companyName, _companyAddress, _verified, drugActivity.Active);\r\n    } \r\n\r\n    function retrieveDrug(string memory batchno) public view returns(string memory, string memory , string memory, string memory, string memory, string memory){\r\n        return (drugDetail[batchno].drugName, drugDetail[batchno].drugQuantity, drugDetail[batchno].dateOfManufacture, drugDetail[batchno].dateOfExpire, drugDetail[batchno].companyName, drugDetail[batchno].companyAddress);\r\n    } \r\n    function retrieveDrug1(string memory batchno) public view returns(bool, drugActivity){\r\n        return (drugDetail[batchno].verified, drugDetail[batchno].activity);\r\n    }    \r\n    //To add manufatuer to supplychain \r\n    function addManufactuer(string memory batchno) public{\r\n        address manufacturerAddress=msg.sender; \r\n        if(manufacturerAddress != address(0)){\r\n            _addManufactuer(manufacturerAddress,batchno);\r\n        }\r\n    }\r\n    function _addManufactuer(address man_Address, string memory batchno) private{\r\n        origmanufacturer=man_Address; \r\n        origmantimestamp=block.timestamp;\r\n        supplychain[batchno]=supplyChain(origmanufacturer,origmantimestamp,origdistributor,origdistimestamp,origlogistic,origlogtimestamp,origenduser,origusertimestamp); \r\n        drugTrack[batchno].manufacturer=true; \r\n        emit manageSupplychain(origmanufacturer,origmantimestamp,origdistributor,origdistimestamp,origlogistic,origlogtimestamp,origenduser,origusertimestamp);\r\n    }   \r\n    \r\n    //To add distributor to supplychain \r\n    function addDistributor(string memory batchno) public{\r\n        address distributorAddress=msg.sender; \r\n        if(distributorAddress != address(0)){\r\n            _addDistributor(distributorAddress,batchno);\r\n        }\r\n    }\r\n    function _addDistributor(address dis_Address, string memory batchno) private{\r\n        origdistributor=dis_Address; \r\n        origdistimestamp=block.timestamp;\r\n        supplychain[batchno]=supplyChain(origmanufacturer,origmantimestamp,origdistributor,origdistimestamp,origlogistic,origlogtimestamp,origenduser,origusertimestamp); \r\n        drugTrack[batchno].distributor=true;\r\n        emit manageSupplychain(origmanufacturer,origmantimestamp,origdistributor,origdistimestamp,origlogistic,origlogtimestamp,origenduser,origusertimestamp);\r\n    }   \r\n\r\n    //To add logistic to supplychain \r\n    function addLogistic(string memory batchno) public{\r\n        address logisticAddress=msg.sender; \r\n        if(logisticAddress != address(0)){\r\n            _addLogistic(logisticAddress,batchno);\r\n        }\r\n    }\r\n    function _addLogistic(address logi_Address, string memory batchno) private{\r\n        origlogistic=logi_Address;\r\n        origlogtimestamp=block.timestamp;\r\n        supplychain[batchno]=supplyChain(origmanufacturer,origmantimestamp,origdistributor,origdistimestamp,origlogistic,origlogtimestamp,origenduser,origusertimestamp); \r\n        drugTrack[batchno].logisticreg=true;\r\n        emit manageSupplychain(origmanufacturer,origmantimestamp,origdistributor,origdistimestamp,origlogistic,origlogtimestamp,origenduser,origusertimestamp);\r\n    }   \r\n\r\n    //To add endUser to supplychain \r\n    function addEndUser(string memory batchno) public{\r\n        address endUserAddress=msg.sender; \r\n        if(endUserAddress != address(0)){\r\n            _addEndUser(endUserAddress,batchno);\r\n        }\r\n    }\r\n    function _addEndUser(address enduser_Address, string memory batchno) private{\r\n        origenduser=enduser_Address;\r\n        origusertimestamp=block.timestamp;\r\n        supplychain[batchno]=supplyChain(origmanufacturer,origmantimestamp,origdistributor,origdistimestamp,origlogistic,origlogtimestamp,origenduser,origusertimestamp); \r\n        drugTrack[batchno].enduser=true;\r\n        emit manageSupplychain(origmanufacturer,origmantimestamp,origdistributor,origdistimestamp,origlogistic,origlogtimestamp,origenduser,origusertimestamp);\r\n    }   \r\n\r\n    //Return Address added to supplychain for particular batchno\r\n    function returnRolesAddresses(string memory batchno) public view returns(address,address,address,address,uint,uint,uint){\r\n        return (supplychain[batchno]._manufacturer,supplychain[batchno]._distributor,supplychain[batchno]._logistics,supplychain[batchno]._enduser,supplychain[batchno]._mantimestamp,supplychain[batchno]._distimestamp,supplychain[batchno]._logtimestamp);\r\n    } \r\n\r\n    //Return Timestamp of each role created\r\n    function returnRolesTimeStamp(string memory batchno) public view returns(uint,uint,uint,uint){\r\n        return (supplychain[batchno]._mantimestamp,supplychain[batchno]._distimestamp,supplychain[batchno]._logtimestamp,supplychain[batchno]._usertimestamp);\r\n    }\r\n\r\n    //Return Status(true/false) added to supplychain for particular batchno\r\n    function returnRolesStatus(string memory batchno) public view returns(bool, bool, bool, bool){\r\n        return (drugTrack[batchno].manufacturer,drugTrack[batchno].distributor,drugTrack[batchno].logisticreg,drugTrack[batchno].enduser);\r\n    } \r\n    function addSecretCode(string memory batchno)public{\r\n        uint _secretCode=uint(keccak256(abi.encodePacked(block.difficulty,block.timestamp)));\r\n        secretCode[batchno]=_secretCode; \r\n    } \r\n    function generateSecretCode(string memory batchno) public view returns(uint){\r\n        return secretCode[batchno];\r\n    }\r\n    function stopSupplychain(string memory batchno, uint code) public{\r\n       if(secretCode[batchno] == code){\r\n           drugDetail[batchno].activity=drugActivity.Inactive;\r\n       } \r\n    } \r\n}",
  "sourcePath": "F:/supplychain_management_of_dual-drugs/contracts/main.sol",
  "compiler": {
    "name": "solc",
    "version": "0.5.0+commit.1d4f565a.Emscripten.clang"
  },
  "schemaVersion": "3.0.1",
  "updatedAt": "2022-10-01T17:41:29.536Z",
  "devdoc": {
    "methods": {}
  },
  "userdoc": {
    "methods": {}
  }
}