{
  "contractName": "Supplychain",
  "abi": [
    {
      "anonymous": false,
      "inputs": [
        {
          "indexed": false,
          "name": "drugName",
          "type": "string"
        },
        {
          "indexed": false,
          "name": "drugQuantity",
          "type": "string"
        },
        {
          "indexed": false,
          "name": "dateOfManufacture",
          "type": "string"
        },
        {
          "indexed": false,
          "name": "dateOfExpire",
          "type": "string"
        },
        {
          "indexed": false,
          "name": "fileaddress",
          "type": "string"
        },
        {
          "indexed": false,
          "name": "verified",
          "type": "bool"
        },
        {
          "indexed": false,
          "name": "activity",
          "type": "uint8"
        }
      ],
      "name": "addDrugs",
      "type": "event",
      "signature": "0x436a57fae6c0adfb3538d6f8999ebd1c40d8f870d1552d4a8a69097d30be4c9e"
    },
    {
      "anonymous": false,
      "inputs": [
        {
          "indexed": false,
          "name": "origmanufacturer",
          "type": "address"
        },
        {
          "indexed": false,
          "name": "origmantimestamp",
          "type": "uint256"
        },
        {
          "indexed": false,
          "name": "origdistributor",
          "type": "address"
        },
        {
          "indexed": false,
          "name": "origdistimestamp",
          "type": "uint256"
        },
        {
          "indexed": false,
          "name": "origlogistic",
          "type": "address"
        },
        {
          "indexed": false,
          "name": "origlogtimestamp",
          "type": "uint256"
        },
        {
          "indexed": false,
          "name": "origenduser",
          "type": "address"
        },
        {
          "indexed": false,
          "name": "origusertimestamp",
          "type": "uint256"
        }
      ],
      "name": "manageSupplychain",
      "type": "event",
      "signature": "0x0f09c3dfa2e3af7b40c7b5be6fe6ed1f408ea0fd76c28b3bf02657d37b46f38b"
    },
    {
      "anonymous": false,
      "inputs": [
        {
          "indexed": false,
          "name": "manfloc",
          "type": "string"
        },
        {
          "indexed": false,
          "name": "distloc",
          "type": "string"
        },
        {
          "indexed": false,
          "name": "logloc",
          "type": "string"
        },
        {
          "indexed": false,
          "name": "userloc",
          "type": "string"
        }
      ],
      "name": "manageLocation",
      "type": "event",
      "signature": "0x727f43905e902a01e4d20b4eaab649c26f74ee61cabf65c99005f28727b26508"
    },
    {
      "constant": false,
      "inputs": [
        {
          "name": "_drugName",
          "type": "string"
        },
        {
          "name": "_drugQuantity",
          "type": "string"
        },
        {
          "name": "_dateOfManufacture",
          "type": "string"
        },
        {
          "name": "_dateOfExpire",
          "type": "string"
        },
        {
          "name": "_fileaddress",
          "type": "string"
        },
        {
          "name": "_verified",
          "type": "bool"
        },
        {
          "name": "batchno",
          "type": "string"
        }
      ],
      "name": "AddDrug",
      "outputs": [],
      "payable": false,
      "stateMutability": "nonpayable",
      "type": "function",
      "signature": "0xd213cf22"
    },
    {
      "constant": true,
      "inputs": [
        {
          "name": "batchno",
          "type": "string"
        }
      ],
      "name": "retrieveDrug",
      "outputs": [
        {
          "name": "",
          "type": "string"
        },
        {
          "name": "",
          "type": "string"
        },
        {
          "name": "",
          "type": "string"
        },
        {
          "name": "",
          "type": "string"
        },
        {
          "name": "",
          "type": "string"
        }
      ],
      "payable": false,
      "stateMutability": "view",
      "type": "function",
      "signature": "0x5c013927"
    },
    {
      "constant": true,
      "inputs": [
        {
          "name": "batchno",
          "type": "string"
        }
      ],
      "name": "retrieveDrug1",
      "outputs": [
        {
          "name": "",
          "type": "bool"
        },
        {
          "name": "",
          "type": "uint8"
        }
      ],
      "payable": false,
      "stateMutability": "view",
      "type": "function",
      "signature": "0x5b70e90a"
    },
    {
      "constant": false,
      "inputs": [
        {
          "name": "batchno",
          "type": "string"
        },
        {
          "name": "loc",
          "type": "string"
        }
      ],
      "name": "addManufactuer",
      "outputs": [],
      "payable": false,
      "stateMutability": "nonpayable",
      "type": "function",
      "signature": "0x5718d9c8"
    },
    {
      "constant": false,
      "inputs": [
        {
          "name": "batchno",
          "type": "string"
        },
        {
          "name": "loc",
          "type": "string"
        }
      ],
      "name": "addDistributor",
      "outputs": [],
      "payable": false,
      "stateMutability": "nonpayable",
      "type": "function",
      "signature": "0xdc2fdb14"
    },
    {
      "constant": false,
      "inputs": [
        {
          "name": "batchno",
          "type": "string"
        },
        {
          "name": "loc",
          "type": "string"
        }
      ],
      "name": "addLogistic",
      "outputs": [],
      "payable": false,
      "stateMutability": "nonpayable",
      "type": "function",
      "signature": "0x3c77f219"
    },
    {
      "constant": false,
      "inputs": [
        {
          "name": "batchno",
          "type": "string"
        },
        {
          "name": "loc",
          "type": "string"
        }
      ],
      "name": "addEndUser",
      "outputs": [],
      "payable": false,
      "stateMutability": "nonpayable",
      "type": "function",
      "signature": "0x19357f57"
    },
    {
      "constant": true,
      "inputs": [
        {
          "name": "batchno",
          "type": "string"
        }
      ],
      "name": "returnRolesAddresses",
      "outputs": [
        {
          "name": "",
          "type": "address"
        },
        {
          "name": "",
          "type": "address"
        },
        {
          "name": "",
          "type": "address"
        },
        {
          "name": "",
          "type": "address"
        },
        {
          "name": "",
          "type": "uint256"
        },
        {
          "name": "",
          "type": "uint256"
        },
        {
          "name": "",
          "type": "uint256"
        }
      ],
      "payable": false,
      "stateMutability": "view",
      "type": "function",
      "signature": "0x8ecd2f0b"
    },
    {
      "constant": true,
      "inputs": [
        {
          "name": "batchno",
          "type": "string"
        }
      ],
      "name": "returnRolesTimeStamp",
      "outputs": [
        {
          "name": "",
          "type": "uint256"
        },
        {
          "name": "",
          "type": "uint256"
        },
        {
          "name": "",
          "type": "uint256"
        },
        {
          "name": "",
          "type": "uint256"
        }
      ],
      "payable": false,
      "stateMutability": "view",
      "type": "function",
      "signature": "0x0e972e6d"
    },
    {
      "constant": true,
      "inputs": [
        {
          "name": "batchno",
          "type": "string"
        }
      ],
      "name": "returnRolesStatus",
      "outputs": [
        {
          "name": "",
          "type": "bool"
        },
        {
          "name": "",
          "type": "bool"
        },
        {
          "name": "",
          "type": "bool"
        },
        {
          "name": "",
          "type": "bool"
        }
      ],
      "payable": false,
      "stateMutability": "view",
      "type": "function",
      "signature": "0xc7ce7e88"
    },
    {
      "constant": true,
      "inputs": [
        {
          "name": "batchno",
          "type": "string"
        }
      ],
      "name": "returnRolesLocation",
      "outputs": [
        {
          "name": "",
          "type": "string"
        },
        {
          "name": "",
          "type": "string"
        },
        {
          "name": "",
          "type": "string"
        },
        {
          "name": "",
          "type": "string"
        }
      ],
      "payable": false,
      "stateMutability": "view",
      "type": "function",
      "signature": "0x68cc425a"
    },
    {
      "constant": false,
      "inputs": [
        {
          "name": "batchno",
          "type": "string"
        }
      ],
      "name": "addSecretCode",
      "outputs": [],
      "payable": false,
      "stateMutability": "nonpayable",
      "type": "function",
      "signature": "0xfe8ac4fd"
    },
    {
      "constant": true,
      "inputs": [
        {
          "name": "batchno",
          "type": "string"
        }
      ],
      "name": "generateSecretCode",
      "outputs": [
        {
          "name": "",
          "type": "uint256"
        }
      ],
      "payable": false,
      "stateMutability": "view",
      "type": "function",
      "signature": "0xb81f20df"
    },
    {
      "constant": false,
      "inputs": [
        {
          "name": "batchno",
          "type": "string"
        },
        {
          "name": "code",
          "type": "uint256"
        }
      ],
      "name": "stopSupplychain",
      "outputs": [],
      "payable": false,
      "stateMutability": "nonpayable",
      "type": "function",
      "signature": "0xa5fe211c"
    }
  ],
  "bytecode": "0x608060405234801561001057600080fd5b50613eb1806100206000396000f3fe6080604052600436106100cf5763ffffffff7c01000000000000000000000000000000000000000000000000000000006000350416630e972e6d81146100d457806319357f57146101ad5780633c77f219146102e95780635718d9c8146104235780635b70e90a1461055d5780635c0139271461063d57806368cc425a146109005780638ecd2f0b14610b5d578063a5fe211c14610c5a578063b81f20df14610d0f578063c7ce7e8814610dd4578063d213cf2214610eb1578063dc2fdb1414611211578063fe8ac4fd1461134b575b600080fd5b3480156100e057600080fd5b50610187600480360360208110156100f757600080fd5b81019060208101813564010000000081111561011257600080fd5b82018360208201111561012457600080fd5b8035906020019184600183028401116401000000008311171561014657600080fd5b91908080601f0160208091040260200160405190810160405280939291908181526020018383808284376000920191909152509295506113fe945050505050565b604080519485526020850193909352838301919091526060830152519081900360800190f35b3480156101b957600080fd5b506102e7600480360360408110156101d057600080fd5b8101906020810181356401000000008111156101eb57600080fd5b8201836020820111156101fd57600080fd5b8035906020019184600183028401116401000000008311171561021f57600080fd5b91908080601f016020809104026020016040519081016040528093929190818152602001838380828437600092019190915250929594936020810193503591505064010000000081111561027257600080fd5b82018360208201111561028457600080fd5b803590602001918460018302840111640100000000831117156102a657600080fd5b91908080601f0160208091040260200160405190810160405280939291908181526020018383808284376000920191909152509295506115a4945050505050565b005b3480156102f557600080fd5b506102e76004803603604081101561030c57600080fd5b81019060208101813564010000000081111561032757600080fd5b82018360208201111561033957600080fd5b8035906020019184600183028401116401000000008311171561035b57600080fd5b91908080601f01602080910402602001604051908101604052809392919081815260200183838082843760009201919091525092959493602081019350359150506401000000008111156103ae57600080fd5b8201836020820111156103c057600080fd5b803590602001918460018302840111640100000000831117156103e257600080fd5b91908080601f0160208091040260200160405190810160405280939291908181526020018383808284376000920191909152509295506115d8945050505050565b34801561042f57600080fd5b506102e76004803603604081101561044657600080fd5b81019060208101813564010000000081111561046157600080fd5b82018360208201111561047357600080fd5b8035906020019184600183028401116401000000008311171561049557600080fd5b91908080601f01602080910402602001604051908101604052809392919081815260200183838082843760009201919091525092959493602081019350359150506401000000008111156104e857600080fd5b8201836020820111156104fa57600080fd5b8035906020019184600183028401116401000000008311171561051c57600080fd5b91908080601f016020809104026020016040519081016040528093929190818152602001838380828437600092019190915250929550611607945050505050565b34801561056957600080fd5b506106106004803603602081101561058057600080fd5b81019060208101813564010000000081111561059b57600080fd5b8201836020820111156105ad57600080fd5b803590602001918460018302840111640100000000831117156105cf57600080fd5b91908080601f016020809104026020016040519081016040528093929190818152602001838380828437600092019190915250929550611636945050505050565b60405182151581526020810182600181111561062857fe5b60ff1681526020019250505060405180910390f35b34801561064957600080fd5b506106f06004803603602081101561066057600080fd5b81019060208101813564010000000081111561067b57600080fd5b82018360208201111561068d57600080fd5b803590602001918460018302840111640100000000831117156106af57600080fd5b91908080601f016020809104026020016040519081016040528093929190818152602001838380828437600092019190915250929550611720945050505050565b60405180806020018060200180602001806020018060200186810386528b818151815260200191508051906020019080838360005b8381101561073d578181015183820152602001610725565b50505050905090810190601f16801561076a5780820380516001836020036101000a031916815260200191505b5086810385528a5181528a516020918201918c019080838360005b8381101561079d578181015183820152602001610785565b50505050905090810190601f1680156107ca5780820380516001836020036101000a031916815260200191505b5086810384528951815289516020918201918b019080838360005b838110156107fd5781810151838201526020016107e5565b50505050905090810190601f16801561082a5780820380516001836020036101000a031916815260200191505b5086810383528851815288516020918201918a019080838360005b8381101561085d578181015183820152602001610845565b50505050905090810190601f16801561088a5780820380516001836020036101000a031916815260200191505b50868103825287518152875160209182019189019080838360005b838110156108bd5781810151838201526020016108a5565b50505050905090810190601f1680156108ea5780820380516001836020036101000a031916815260200191505b509a505050505050505050505060405180910390f35b34801561090c57600080fd5b506109b36004803603602081101561092357600080fd5b81019060208101813564010000000081111561093e57600080fd5b82018360208201111561095057600080fd5b8035906020019184600183028401116401000000008311171561097257600080fd5b91908080601f016020809104026020016040519081016040528093929190818152602001838380828437600092019190915250929550611c00945050505050565b6040518080602001806020018060200180602001858103855289818151815260200191508051906020019080838360005b838110156109fc5781810151838201526020016109e4565b50505050905090810190601f168015610a295780820380516001836020036101000a031916815260200191505b5085810384528851815288516020918201918a019080838360005b83811015610a5c578181015183820152602001610a44565b50505050905090810190601f168015610a895780820380516001836020036101000a031916815260200191505b50858103835287518152875160209182019189019080838360005b83811015610abc578181015183820152602001610aa4565b50505050905090810190601f168015610ae95780820380516001836020036101000a031916815260200191505b50858103825286518152865160209182019188019080838360005b83811015610b1c578181015183820152602001610b04565b50505050905090810190601f168015610b495780820380516001836020036101000a031916815260200191505b509850505050505050505060405180910390f35b348015610b6957600080fd5b50610c1060048036036020811015610b8057600080fd5b810190602081018135640100000000811115610b9b57600080fd5b820183602082011115610bad57600080fd5b80359060200191846001830284011164010000000083111715610bcf57600080fd5b91908080601f016020809104026020016040519081016040528093929190818152602001838380828437600092019190915250929550611fe4945050505050565b60408051600160a060020a039889168152968816602088015294871686860152929095166060850152608084015260a083019390935260c082019290925290519081900360e00190f35b348015610c6657600080fd5b506102e760048036036040811015610c7d57600080fd5b810190602081018135640100000000811115610c9857600080fd5b820183602082011115610caa57600080fd5b80359060200191846001830284011164010000000083111715610ccc57600080fd5b91908080601f0160208091040260200160405190810160405280939291908181526020018383808284376000920191909152509295505091359250612306915050565b348015610d1b57600080fd5b50610dc260048036036020811015610d3257600080fd5b810190602081018135640100000000811115610d4d57600080fd5b820183602082011115610d5f57600080fd5b80359060200191846001830284011164010000000083111715610d8157600080fd5b91908080601f016020809104026020016040519081016040528093929190818152602001838380828437600092019190915250929550612402945050505050565b60408051918252519081900360200190f35b348015610de057600080fd5b50610e8760048036036020811015610df757600080fd5b810190602081018135640100000000811115610e1257600080fd5b820183602082011115610e2457600080fd5b80359060200191846001830284011164010000000083111715610e4657600080fd5b91908080601f01602080910402602001604051908101604052809392919081815260200183838082843760009201919091525092955061246a945050505050565b60408051941515855292151560208501529015158383015215156060830152519081900360800190f35b348015610ebd57600080fd5b506102e7600480360360e0811015610ed457600080fd5b810190602081018135640100000000811115610eef57600080fd5b820183602082011115610f0157600080fd5b80359060200191846001830284011164010000000083111715610f2357600080fd5b91908080601f0160208091040260200160405190810160405280939291908181526020018383808284376000920191909152509295949360208101935035915050640100000000811115610f7657600080fd5b820183602082011115610f8857600080fd5b80359060200191846001830284011164010000000083111715610faa57600080fd5b91908080601f0160208091040260200160405190810160405280939291908181526020018383808284376000920191909152509295949360208101935035915050640100000000811115610ffd57600080fd5b82018360208201111561100f57600080fd5b8035906020019184600183028401116401000000008311171561103157600080fd5b91908080601f016020809104026020016040519081016040528093929190818152602001838380828437600092019190915250929594936020810193503591505064010000000081111561108457600080fd5b82018360208201111561109657600080fd5b803590602001918460018302840111640100000000831117156110b857600080fd5b91908080601f016020809104026020016040519081016040528093929190818152602001838380828437600092019190915250929594936020810193503591505064010000000081111561110b57600080fd5b82018360208201111561111d57600080fd5b8035906020019184600183028401116401000000008311171561113f57600080fd5b91908080601f01602080910402602001604051908101604052809392919081815260200183838082843760009201919091525092958435151595909490935060408101925060200135905064010000000081111561119c57600080fd5b8201836020820111156111ae57600080fd5b803590602001918460018302840111640100000000831117156111d057600080fd5b91908080601f01602080910402602001604051908101604052809392919081815260200183838082843760009201919091525092955061262f945050505050565b34801561121d57600080fd5b506102e76004803603604081101561123457600080fd5b81019060208101813564010000000081111561124f57600080fd5b82018360208201111561126157600080fd5b8035906020019184600183028401116401000000008311171561128357600080fd5b91908080601f01602080910402602001604051908101604052809392919081815260200183838082843760009201919091525092959493602081019350359150506401000000008111156112d657600080fd5b8201836020820111156112e857600080fd5b8035906020019184600183028401116401000000008311171561130a57600080fd5b91908080601f0160208091040260200160405190810160405280939291908181526020018383808284376000920191909152509295506129ef945050505050565b34801561135757600080fd5b506102e76004803603602081101561136e57600080fd5b81019060208101813564010000000081111561138957600080fd5b82018360208201111561139b57600080fd5b803590602001918460018302840111640100000000831117156113bd57600080fd5b91908080601f016020809104026020016040519081016040528093929190818152602001838380828437600092019190915250929550612a1e945050505050565b600080600080600f856040518082805190602001908083835b602083106114365780518252601f199092019160209182019101611417565b51815160209384036101000a600019018019909216911617905292019485525060405193849003810184206001015489519094600f94508a9350918291908401908083835b6020831061149a5780518252601f19909201916020918201910161147b565b51815160209384036101000a60001901801990921691161790529201948552506040519384900381018420600301548a519094600f94508b9350918291908401908083835b602083106114fe5780518252601f1990920191602091820191016114df565b51815160209384036101000a60001901801990921691161790529201948552506040519384900381018420600501548b519094600f94508c9350918291908401908083835b602083106115625780518252601f199092019160209182019101611543565b51815160209384036101000a6000190180199092169116179052920194855250604051938490030190922060070154949a939950919750929550909350505050565b805133906115b990600b906020850190613dca565b50600160a060020a038116156115d3576115d38184612abd565b505050565b805133906115ed90600a906020850190613dca565b50600160a060020a038116156115d3576115d38184613261565b8051339061161c906008906020850190613dca565b50600160a060020a038116156115d3576115d3818461385b565b600080600c836040518082805190602001908083835b6020831061166b5780518252601f19909201916020918201910161164c565b51815160209384036101000a6000190180199092169116179052920194855250604051938490038101842060050154875160ff90911694600c9450889350918291908401908083835b602083106116d35780518252601f1990920191602091820191016116b4565b6001836020036101000a038019825116818451168082178552505050505050905001915050908152602001604051809103902060050160019054906101000a900460ff1691509150915091565b6060806060806060600c866040518082805190602001908083835b6020831061175a5780518252601f19909201916020918201910161173b565b51815160209384036101000a600019018019909216911617905292019485525060405193849003810184208a519094600c94508b9350918291908401908083835b602083106117ba5780518252601f19909201916020918201910161179b565b6001836020036101000a0380198251168184511680821785525050505050509050019150509081526020016040518091039020600101600c886040518082805190602001908083835b602083106118225780518252601f199092019160209182019101611803565b6001836020036101000a0380198251168184511680821785525050505050509050019150509081526020016040518091039020600201600c896040518082805190602001908083835b6020831061188a5780518252601f19909201916020918201910161186b565b6001836020036101000a0380198251168184511680821785525050505050509050019150509081526020016040518091039020600301600c8a6040518082805190602001908083835b602083106118f25780518252601f1990920191602091820191016118d3565b518151600019602094850361010090810a820192831692199390931691909117909252949092019687526040805197889003820188208c54601f600260018316159098029095011695909504928301829004820288018201905281875260049093019594508993509184019050828280156119ae5780601f10611983576101008083540402835291602001916119ae565b820191906000526020600020905b81548152906001019060200180831161199157829003601f168201915b5050875460408051602060026001851615610100026000190190941693909304601f8101849004840282018401909252818152959a5089945092508401905082828015611a3c5780601f10611a1157610100808354040283529160200191611a3c565b820191906000526020600020905b815481529060010190602001808311611a1f57829003601f168201915b5050865460408051602060026001851615610100026000190190941693909304601f810184900484028201840190925281815295995088945092508401905082828015611aca5780601f10611a9f57610100808354040283529160200191611aca565b820191906000526020600020905b815481529060010190602001808311611aad57829003601f168201915b5050855460408051602060026001851615610100026000190190941693909304601f810184900484028201840190925281815295985087945092508401905082828015611b585780601f10611b2d57610100808354040283529160200191611b58565b820191906000526020600020905b815481529060010190602001808311611b3b57829003601f168201915b5050845460408051602060026001851615610100026000190190941693909304601f810184900484028201840190925281815295975086945092508401905082828015611be65780601f10611bbb57610100808354040283529160200191611be6565b820191906000526020600020905b815481529060010190602001808311611bc957829003601f168201915b505050505090509450945094509450945091939590929450565b6060806060806010856040518082805190602001908083835b60208310611c385780518252601f199092019160209182019101611c19565b51815160209384036101000a6000190180199092169116179052920194855250604051938490038101842089519094601094508a9350918291908401908083835b60208310611c985780518252601f199092019160209182019101611c79565b6001836020036101000a03801982511681845116808217855250505050505090500191505090815260200160405180910390206001016010876040518082805190602001908083835b60208310611d005780518252601f199092019160209182019101611ce1565b6001836020036101000a03801982511681845116808217855250505050505090500191505090815260200160405180910390206002016010886040518082805190602001908083835b60208310611d685780518252601f199092019160209182019101611d49565b518151600019602094850361010090810a820192831692199390931691909117909252949092019687526040805197889003820188208b54601f60026001831615909802909501169590950492830182900482028801820190528187526003909301959450889350918401905082828015611e245780601f10611df957610100808354040283529160200191611e24565b820191906000526020600020905b815481529060010190602001808311611e0757829003601f168201915b5050865460408051602060026001851615610100026000190190941693909304601f810184900484028201840190925281815295995088945092508401905082828015611eb25780601f10611e8757610100808354040283529160200191611eb2565b820191906000526020600020905b815481529060010190602001808311611e9557829003601f168201915b5050855460408051602060026001851615610100026000190190941693909304601f810184900484028201840190925281815295985087945092508401905082828015611f405780601f10611f1557610100808354040283529160200191611f40565b820191906000526020600020905b815481529060010190602001808311611f2357829003601f168201915b5050845460408051602060026001851615610100026000190190941693909304601f810184900484028201840190925281815295975086945092508401905082828015611fce5780601f10611fa357610100808354040283529160200191611fce565b820191906000526020600020905b815481529060010190602001808311611fb157829003601f168201915b5050505050905093509350935093509193509193565b6000806000806000806000600f886040518082805190602001908083835b602083106120215780518252601f199092019160209182019101612002565b51815160209384036101000a60001901801990921691161790529201948552506040519384900381018420548c51600160a060020a0390911694600f94508d9350918291908401908083835b6020831061208c5780518252601f19909201916020918201910161206d565b51815160209384036101000a60001901801990921691161790529201948552506040519384900381018420600201548d51600160a060020a0390911694600f94508e9350918291908401908083835b602083106120fa5780518252601f1990920191602091820191016120db565b51815160209384036101000a60001901801990921691161790529201948552506040519384900381018420600401548e51600160a060020a0390911694600f94508f9350918291908401908083835b602083106121685780518252601f199092019160209182019101612149565b6001836020036101000a038019825116818451168082178552505050505050905001915050908152602001604051809103902060060160009054906101000a9004600160a060020a0316600f8c6040518082805190602001908083835b602083106121e45780518252601f1990920191602091820191016121c5565b6001836020036101000a038019825116818451168082178552505050505050905001915050908152602001604051809103902060010154600f8d6040518082805190602001908083835b6020831061224d5780518252601f19909201916020918201910161222e565b6001836020036101000a038019825116818451168082178552505050505050905001915050908152602001604051809103902060030154600f8e6040518082805190602001908083835b602083106122b65780518252601f199092019160209182019101612297565b6001836020036101000a0380198251168184511680821785525050505050509050019150509081526020016040518091039020600501549650965096509650965096509650919395979092949650565b80600d836040518082805190602001908083835b602083106123395780518252601f19909201916020918201910161231a565b6001836020036101000a03801982511681845116808217855250505050505090500191505090815260200160405180910390205414156123fe576001600c836040518082805190602001908083835b602083106123a75780518252601f199092019160209182019101612388565b6001836020036101000a038019825116818451168082178552505050505050905001915050908152602001604051809103902060050160016101000a81548160ff021916908360018111156123f857fe5b02179055505b5050565b6000600d826040518082805190602001908083835b602083106124365780518252601f199092019160209182019101612417565b51815160209384036101000a6000190180199092169116179052920194855250604051938490030190922054949350505050565b600080600080600e856040518082805190602001908083835b602083106124a25780518252601f199092019160209182019101612483565b51815160209384036101000a6000190180199092169116179052920194855250604051938490038101842054895160ff90911694600e94508a9350918291908401908083835b602083106125075780518252601f1990920191602091820191016124e8565b6001836020036101000a038019825116818451168082178552505050505050905001915050908152602001604051809103902060000160019054906101000a900460ff16600e876040518082805190602001908083835b6020831061257d5780518252601f19909201916020918201910161255e565b51815160209384036101000a60001901801990921691161790529201948552506040519384900381018420548b516201000090910460ff1694600e94508c9350918291908401908083835b602083106125e75780518252601f1990920191602091820191016125c8565b51815160209384036101000a6000190180199092169116179052920194855250604051938490030190922054949a9399509197505050630100000090910460ff169350915050565b60e06040519081016040528088815260200187815260200186815260200185815260200184815260200183151581526020016000600181111561266e57fe5b815250600c826040518082805190602001908083835b602083106126a35780518252601f199092019160209182019101612684565b51815160209384036101000a60001901801990921691161790529201948552506040519384900381019093208451805191946126e494508593500190613dca565b5060208281015180516126fd9260018501920190613dca565b5060408201518051612719916002840191602090910190613dca565b5060608201518051612735916003840191602090910190613dca565b5060808201518051612751916004840191602090910190613dca565b5060a082015160058201805460ff19169115159190911780825560c0840151919061ff00191661010083600181111561278657fe5b02179055509050507f436a57fae6c0adfb3538d6f8999ebd1c40d8f870d1552d4a8a69097d30be4c9e8787878787876000604051808060200180602001806020018060200180602001881515151581526020018760018111156127e557fe5b60ff16815260200186810386528d818151815260200191508051906020019080838360005b8381101561282257818101518382015260200161280a565b50505050905090810190601f16801561284f5780820380516001836020036101000a031916815260200191505b5086810385528c5181528c516020918201918e019080838360005b8381101561288257818101518382015260200161286a565b50505050905090810190601f1680156128af5780820380516001836020036101000a031916815260200191505b5086810384528b5181528b516020918201918d019080838360005b838110156128e25781810151838201526020016128ca565b50505050905090810190601f16801561290f5780820380516001836020036101000a031916815260200191505b5086810383528a5181528a516020918201918c019080838360005b8381101561294257818101518382015260200161292a565b50505050905090810190601f16801561296f5780820380516001836020036101000a031916815260200191505b5086810382528951815289516020918201918b019080838360005b838110156129a257818101518382015260200161298a565b50505050905090810190601f1680156129cf5780820380516001836020036101000a031916815260200191505b509c5050505050505050505050505060405180910390a150505050505050565b80513390612a04906009906020850190613dca565b50600160a060020a038116156115d3576115d38184613b0e565b6000444260405160200180838152602001828152602001925050506040516020818303038152906040528051906020012060019004905080600d836040518082805190602001908083835b60208310612a885780518252601f199092019160209182019101612a69565b51815160209384036101000a600019018019909216911617905292019485525060405193849003019092209290925550505050565b60038054600160a060020a031916600160a060020a03848116919091179182905542600781905560408051610100810182526000548416815260045460208083019190915260015485168284015260055460608301526002548516608083015260065460a08301529490931660c084015260e08301919091525183519192600f928592918291908401908083835b60208310612b6a5780518252601f199092019160209182019101612b4b565b51815160209384036101000a600019018019909216911617905292019485525060408051948590038201852086518154600160a060020a0319908116600160a060020a0392831617835588850151600180850191909155938901516002840180548316918416919091179055606089015160038401556080890151600484018054831691841691909117905560a0890151600584015560c0890151600684018054909216921691909117905560e0909601516007909601959095558551600e94879450925082918401908083835b60208310612c575780518252601f199092019160209182019101612c38565b518151600019602094850361010090810a82019283169219939093169190911790925294909201968752604080519788900382018820805499151563010000000263ff00000019909a16999099179098556008805460a0601f600260018416159098029095019091169590950492830182900490910287018401909752608086018181529596879695509350918501905082828015612d375780601f10612d0c57610100808354040283529160200191612d37565b820191906000526020600020905b815481529060010190602001808311612d1a57829003601f168201915b50505091835250506009805460408051602060026001851615610100026000190190941693909304601f8101849004840282018401909252818152938201939291830182828015612dc95780601f10612d9e57610100808354040283529160200191612dc9565b820191906000526020600020905b815481529060010190602001808311612dac57829003601f168201915b5050509183525050600a805460408051602060026001851615610100026000190190941693909304601f8101849004840282018401909252818152938201939291830182828015612e5b5780601f10612e3057610100808354040283529160200191612e5b565b820191906000526020600020905b815481529060010190602001808311612e3e57829003601f168201915b5050509183525050600b805460408051602060026001851615610100026000190190941693909304601f8101849004840282018401909252818152938201939291830182828015612eed5780601f10612ec257610100808354040283529160200191612eed565b820191906000526020600020905b815481529060010190602001808311612ed057829003601f168201915b50505050508152506010826040518082805190602001908083835b60208310612f275780518252601f199092019160209182019101612f08565b51815160209384036101000a6000190180199092169116179052920194855250604051938490038101909320845180519194612f6894508593500190613dca565b506020828101518051612f819260018501920190613dca565b5060408201518051612f9d916002840191602090910190613dca565b5060608201518051612fb9916003840191602090910190613dca565b505060005460045460015460055460025460065460035460075460408051600160a060020a03998a1681526020810198909852958816878701526060870194909452918616608086015260a085015290931660c083015260e08201929092529051600080516020613e668339815191529250908190036101000190a160408051608080825260088054600260001961010060018416150201909116049183018290527f727f43905e902a01e4d20b4eaab649c26f74ee61cabf65c99005f28727b26508939092600992600a92600b92918291602083019190830190606084019060a08501908a9080156130ed5780601f106130c2576101008083540402835291602001916130ed565b820191906000526020600020905b8154815290600101906020018083116130d057829003601f168201915b50508581038452885460026000196101006001841615020190911604808252602090910190899080156131615780601f1061313657610100808354040283529160200191613161565b820191906000526020600020905b81548152906001019060200180831161314457829003601f168201915b50508581038352875460026000196101006001841615020190911604808252602090910190889080156131d55780601f106131aa576101008083540402835291602001916131d5565b820191906000526020600020905b8154815290600101906020018083116131b857829003601f168201915b50508581038252865460026000196101006001841615020190911604808252602090910190879080156132495780601f1061321e57610100808354040283529160200191613249565b820191906000526020600020905b81548152906001019060200180831161322c57829003601f168201915b50509850505050505050505060405180910390a15050565b60028054600160a060020a031916600160a060020a0384811691909117918290554260068190556040805161010081018252600054841681526004546020808301919091526001548516828401526005546060830152948416608082015260a081019290925260035490921660c082015260075460e0820152905183519192600f928592918291908401908083835b6020831061330f5780518252601f1990920191602091820191016132f0565b51815160209384036101000a600019018019909216911617905292019485525060408051948590038201852086518154600160a060020a0319908116600160a060020a0392831617835588850151600180850191909155938901516002840180548316918416919091179055606089015160038401556080890151600484018054831691841691909117905560a0890151600584015560c0890151600684018054909216921691909117905560e0909601516007909601959095558551600e94879450925082918401908083835b602083106133fc5780518252601f1990920191602091820191016133dd565b518151600019602094850361010090810a9190910191821691199290921617909152939091019586526040805196879003820187208054981515620100000262ff00001990991698909817909755600054600454600154600554600254600654600354600754600160a060020a039788168e52978d01959095529285168b8d015260608b0191909152831660808a015260a08901521660c087015260e0860152509351600080516020613e66833981519152949381900390930192915050a1604080516008805460a06020601f600260001961010060018716150201909416939093049283018190040284018101909452608083018181529293849392919084018282801561354c5780601f106135215761010080835404028352916020019161354c565b820191906000526020600020905b81548152906001019060200180831161352f57829003601f168201915b50505091835250506009805460408051602060026001851615610100026000190190941693909304601f81018490048402820184019092528181529382019392918301828280156135de5780601f106135b3576101008083540402835291602001916135de565b820191906000526020600020905b8154815290600101906020018083116135c157829003601f168201915b5050509183525050600a805460408051602060026001851615610100026000190190941693909304601f81018490048402820184019092528181529382019392918301828280156136705780601f1061364557610100808354040283529160200191613670565b820191906000526020600020905b81548152906001019060200180831161365357829003601f168201915b5050509183525050600b805460408051602060026001851615610100026000190190941693909304601f81018490048402820184019092528181529382019392918301828280156137025780601f106136d757610100808354040283529160200191613702565b820191906000526020600020905b8154815290600101906020018083116136e557829003601f168201915b50505050508152506010826040518082805190602001908083835b6020831061373c5780518252601f19909201916020918201910161371d565b51815160209384036101000a600019018019909216911617905292019485525060405193849003810190932084518051919461377d94508593500190613dca565b5060208281015180516137969260018501920190613dca565b50604082015180516137b2916002840191602090910190613dca565b50606082015180516137ce916003840191602090910190613dca565b505060408051608080825260088054600260001961010060018416150201909116049183018290527f727f43905e902a01e4d20b4eaab649c26f74ee61cabf65c99005f28727b26508945092600992600a92600b9282916020830191830190606084019060a08501908a9080156130ed5780601f106130c2576101008083540402835291602001916130ed565b60008054600160a060020a031916600160a060020a0384811691909117918290554260048190556040805161010081018252938316845260208085019290925260015483168482015260055460608501526002548316608085015260065460a085015260035490921660c084015260075460e084015290518351600f9285929182918401908083835b602083106139035780518252601f1990920191602091820191016138e4565b51815160209384036101000a600019018019909216911617905292019485525060408051948590038201852086518154600160a060020a0319908116600160a060020a0392831617835588850151600180850191909155938901516002840180548316918416919091179055606089015160038401556080890151600484018054831691841691909117905560a0890151600584015560c0890151600684018054909216921691909117905560e0909601516007909601959095558551600e94879450925082918401908083835b602083106139f05780518252601f1990920191602091820191016139d1565b518151600019602094850361010090810a919091019182169119929092161790915293909101958652604080519687900382018720805498151560ff1990991698909817909755600054600454600154600554600254600654600354600754600160a060020a039788168e52978d01959095529285168b8d015260608b0191909152831660808a015260a08901521660c087015260e0860152509351600080516020613e66833981519152949381900390930192915050a1604080516008805460a06020601f600260001961010060018716150201909416939093049283018190040284018101909452608083018181529293849392919084018282801561354c5780601f106135215761010080835404028352916020019161354c565b60018054600160a060020a031916600160a060020a0384811691909117918290554260058190556040805161010081018252600054841681526004546020808301919091529484168183015260608101929092526002548316608083015260065460a083015260035490921660c082015260075460e0820152905183519192600f928592918291908401908083835b60208310613bbc5780518252601f199092019160209182019101613b9d565b51815160209384036101000a600019018019909216911617905292019485525060408051948590038201852086518154600160a060020a0319908116600160a060020a0392831617835588850151600180850191909155938901516002840180548316918416919091179055606089015160038401556080890151600484018054831691841691909117905560a0890151600584015560c0890151600684018054909216921691909117905560e0909601516007909601959095558551600e94879450925082918401908083835b60208310613ca95780518252601f199092019160209182019101613c8a565b518151600019602094850361010090810a9190910191821691199290921617909152939091019586526040805196879003820187208054981515850261ff001990991698909817909755600054600454600154600554600254600654600354600754600160a060020a039788168e52978d01959095529285168b8d015260608b0191909152831660808a015260a08901521660c087015260e0860152509351600080516020613e66833981519152949381900390930192915050a1604080516008805460a06020601f600260001961010060018716150201909416939093049283018190040284018101909452608083018181529293849392919084018282801561354c5780601f106135215761010080835404028352916020019161354c565b828054600181600116156101000203166002900490600052602060002090601f016020900481019282601f10613e0b57805160ff1916838001178555613e38565b82800160010185558215613e38579182015b82811115613e38578251825591602001919060010190613e1d565b50613e44929150613e48565b5090565b613e6291905b80821115613e445760008155600101613e4e565b9056fe0f09c3dfa2e3af7b40c7b5be6fe6ed1f408ea0fd76c28b3bf02657d37b46f38ba165627a7a72305820a79afb9d8c28140a6015bc8fbc203d07c2299575ffadb7208c84979910e00ea00029",
  "source": "//contract address: 0xf36C532b92bEfD6d0ff822aD774bffdbD9ddfDb4\r\npragma solidity ^0.5.0; \r\n    \r\ncontract Supplychain{  \r\n    address origmanufacturer;\r\n    address origdistributor; \r\n    address origlogistic;\r\n    address origenduser; \r\n    uint origmantimestamp;\r\n    uint origdistimestamp;\r\n    uint origlogtimestamp;\r\n    uint origusertimestamp;\r\n    string manfloc;\r\n    string distloc;\r\n    string logloc;\r\n    string userloc; \r\n\r\n    //Tracks whether the drug is active or inactive in supplychain\r\n    enum drugActivity{\r\n        Active, \r\n        Inactive\r\n    } \r\n\r\n    //Drug details\r\n    struct Drug{\r\n            string drugName;\r\n            string drugQuantity; \r\n            string dateOfManufacture; \r\n            string dateOfExpire;\r\n            string fileaddress; \r\n            bool verified;\r\n            drugActivity activity;  \r\n    }  \r\n\r\n\r\n    mapping(string=>Drug) drugDetail;      \r\n\r\n    mapping(string=>uint) secretCode;\r\n\r\n     //Event to add drug to blockchain \r\n    event addDrugs(string drugName, string drugQuantity, string dateOfManufacture, string dateOfExpire, string fileaddress, bool verified, drugActivity activity);\r\n\r\n\r\n    //Tracks the status of drug at each actor role, \"true\" if the drug has reached the particular actor role else \"false\"\r\n    struct DrugTrack{\r\n        bool manufacturer;\r\n        bool distributor; \r\n        bool logisticreg; \r\n        bool enduser;\r\n    }  \r\n    \r\n\r\n    //Address of actor roles if the drug has reached the particular actor role\r\n    struct supplyChain{\r\n        address _manufacturer; \r\n        uint _mantimestamp; \r\n        address _distributor; \r\n        uint _distimestamp;\r\n        address _logistics; \r\n        uint _logtimestamp;\r\n        address _enduser;\r\n        uint _usertimestamp; \r\n    }  \r\n\r\n    struct roleLoc{\r\n        string _manfloc; \r\n        string _distloc; \r\n        string _logloc; \r\n        string _userloc;\r\n    }\r\n\r\n    //batch no linked to Structure drugTrack\r\n    mapping(string=>DrugTrack) drugTrack; \r\n\r\n    //batch no linked to Structure supplychain\r\n    mapping(string=>supplyChain) supplychain; \r\n\r\n    //batch no linked to Structure roleLoc \r\n    mapping(string=>roleLoc) rolelocation; \r\n\r\n    //Event is triggered to add address of particular actor role when drug is reached\r\n    //This event handles struct supplychain\r\n    event manageSupplychain(address origmanufacturer, uint origmantimestamp, address origdistributor, uint origdistimestamp, address origlogistic, uint origlogtimestamp, address origenduser, uint origusertimestamp);\r\n\r\n    //This event manages location of each role\r\n    event manageLocation(string manfloc, string distloc, string logloc, string userloc);\r\n\r\n    //Function to add drug info to blockhain\r\n    function AddDrug(string memory _drugName, \r\n    string memory _drugQuantity, \r\n    string memory _dateOfManufacture, \r\n    string memory _dateOfExpire, \r\n    string memory _fileaddress,\r\n    bool _verified,  \r\n    string memory batchno) public{\r\n        drugDetail[batchno]= Drug(_drugName,_drugQuantity,_dateOfManufacture,_dateOfExpire,_fileaddress,_verified,drugActivity.Active);\r\n        emit addDrugs(_drugName, _drugQuantity, _dateOfManufacture, _dateOfExpire, _fileaddress, _verified, drugActivity.Active); \r\n    } \r\n\r\n    //Function to retrieve drugs\r\n    function retrieveDrug(string memory batchno) public view returns(string memory, string memory , string memory, string memory, string memory){\r\n        return (drugDetail[batchno].drugName, drugDetail[batchno].drugQuantity, drugDetail[batchno].dateOfManufacture, drugDetail[batchno].dateOfExpire, drugDetail[batchno].fileaddress);\r\n    } \r\n    function retrieveDrug1(string memory batchno) public view returns(bool, drugActivity){\r\n        return (drugDetail[batchno].verified, drugDetail[batchno].activity);\r\n    }    \r\n    \r\n    //To add manufatuer to supplychain \r\n    function addManufactuer(string memory batchno, string memory loc) public{\r\n        address manufacturerAddress=msg.sender; \r\n        manfloc=loc;\r\n        if(manufacturerAddress != address(0)){\r\n            _addManufactuer(manufacturerAddress,batchno);\r\n        }\r\n    }\r\n    function _addManufactuer(address man_Address, string memory batchno) private{\r\n        origmanufacturer=man_Address; \r\n        origmantimestamp=block.timestamp;\r\n        supplychain[batchno]=supplyChain(origmanufacturer,origmantimestamp,origdistributor,origdistimestamp,origlogistic,origlogtimestamp,origenduser,origusertimestamp); \r\n        drugTrack[batchno].manufacturer=true; \r\n        emit manageSupplychain(origmanufacturer,origmantimestamp,origdistributor,origdistimestamp,origlogistic,origlogtimestamp,origenduser,origusertimestamp); \r\n        rolelocation[batchno]=roleLoc(manfloc, distloc, logloc, userloc);\r\n        emit manageLocation(manfloc, distloc, logloc, userloc);\r\n    }   \r\n    \r\n    //To add distributor to supplychain \r\n    function addDistributor(string memory batchno, string memory loc) public{\r\n        address distributorAddress=msg.sender; \r\n        distloc=loc;\r\n        if(distributorAddress != address(0)){\r\n            _addDistributor(distributorAddress,batchno);\r\n        }\r\n    }\r\n    function _addDistributor(address dis_Address, string memory batchno) private{\r\n        origdistributor=dis_Address; \r\n        origdistimestamp=block.timestamp;\r\n        supplychain[batchno]=supplyChain(origmanufacturer,origmantimestamp,origdistributor,origdistimestamp,origlogistic,origlogtimestamp,origenduser,origusertimestamp); \r\n        drugTrack[batchno].distributor=true;\r\n        emit manageSupplychain(origmanufacturer,origmantimestamp,origdistributor,origdistimestamp,origlogistic,origlogtimestamp,origenduser,origusertimestamp);\r\n        rolelocation[batchno]=roleLoc(manfloc, distloc, logloc, userloc);\r\n        emit manageLocation(manfloc, distloc, logloc, userloc);\r\n    }   \r\n\r\n    //To add logistic to supplychain \r\n    function addLogistic(string memory batchno, string memory loc) public{\r\n        address logisticAddress=msg.sender; \r\n        logloc=loc;\r\n        if(logisticAddress != address(0)){\r\n            _addLogistic(logisticAddress,batchno);\r\n        }\r\n    }\r\n    function _addLogistic(address logi_Address, string memory batchno) private{\r\n        origlogistic=logi_Address;\r\n        origlogtimestamp=block.timestamp;\r\n        supplychain[batchno]=supplyChain(origmanufacturer,origmantimestamp,origdistributor,origdistimestamp,origlogistic,origlogtimestamp,origenduser,origusertimestamp); \r\n        drugTrack[batchno].logisticreg=true;\r\n        emit manageSupplychain(origmanufacturer,origmantimestamp,origdistributor,origdistimestamp,origlogistic,origlogtimestamp,origenduser,origusertimestamp);\r\n        rolelocation[batchno]=roleLoc(manfloc, distloc, logloc, userloc);\r\n        emit manageLocation(manfloc, distloc, logloc, userloc);\r\n    }   \r\n\r\n    //To add endUser to supplychain \r\n    function addEndUser(string memory batchno, string memory loc) public{\r\n        address endUserAddress=msg.sender; \r\n        userloc=loc;\r\n        if(endUserAddress != address(0)){\r\n            _addEndUser(endUserAddress,batchno);\r\n        }\r\n    }\r\n    function _addEndUser(address enduser_Address, string memory batchno) private{\r\n        origenduser=enduser_Address;\r\n        origusertimestamp=block.timestamp;\r\n        supplychain[batchno]=supplyChain(origmanufacturer,origmantimestamp,origdistributor,origdistimestamp,origlogistic,origlogtimestamp,origenduser,origusertimestamp); \r\n        drugTrack[batchno].enduser=true;\r\n        rolelocation[batchno]=roleLoc(manfloc, distloc, logloc, userloc);\r\n        emit manageSupplychain(origmanufacturer,origmantimestamp,origdistributor,origdistimestamp,origlogistic,origlogtimestamp,origenduser,origusertimestamp);\r\n        emit manageLocation(manfloc, distloc, logloc, userloc);\r\n    }   \r\n\r\n    //Return Address added to supplychain for particular batchno\r\n    function returnRolesAddresses(string memory batchno) public view returns(address,address,address,address,uint,uint,uint){\r\n        return (supplychain[batchno]._manufacturer,supplychain[batchno]._distributor,supplychain[batchno]._logistics,supplychain[batchno]._enduser,supplychain[batchno]._mantimestamp,supplychain[batchno]._distimestamp,supplychain[batchno]._logtimestamp);\r\n    } \r\n\r\n    //Return Timestamp of each role created\r\n    function returnRolesTimeStamp(string memory batchno) public view returns(uint,uint,uint,uint){\r\n        return (supplychain[batchno]._mantimestamp,supplychain[batchno]._distimestamp,supplychain[batchno]._logtimestamp,supplychain[batchno]._usertimestamp);\r\n    }\r\n\r\n    //Return Status(true/false) added to supplychain for particular batchno\r\n    function returnRolesStatus(string memory batchno) public view returns(bool, bool, bool, bool){\r\n        return (drugTrack[batchno].manufacturer,drugTrack[batchno].distributor,drugTrack[batchno].logisticreg,drugTrack[batchno].enduser);\r\n    } \r\n\r\n    //Return location of each role\r\n    function returnRolesLocation(string memory batchno) public view returns(string memory, string memory, string memory, string memory){\r\n        return (rolelocation[batchno]._manfloc,rolelocation[batchno]._distloc,rolelocation[batchno]._logloc,rolelocation[batchno]._userloc);\r\n    } \r\n    function addSecretCode(string memory batchno)public{\r\n        uint _secretCode=uint(keccak256(abi.encodePacked(block.difficulty,block.timestamp)));\r\n        secretCode[batchno]=_secretCode; \r\n    } \r\n    function generateSecretCode(string memory batchno) public view returns(uint){\r\n        return secretCode[batchno];\r\n    }\r\n    function stopSupplychain(string memory batchno, uint code) public{\r\n       if(secretCode[batchno] == code){\r\n           drugDetail[batchno].activity=drugActivity.Inactive;\r\n       } \r\n    } \r\n}",
  "sourcePath": "F:/supplychain_management_of_dual-drugs/contracts/Supplychain.sol",
  "compiler": {
    "name": "solc",
    "version": "0.5.0+commit.1d4f565a.Emscripten.clang"
  },
  "schemaVersion": "3.0.1",
  "updatedAt": "2023-03-05T16:23:09.774Z",
  "devdoc": {
    "methods": {}
  },
  "userdoc": {
    "methods": {}
  }
}